:020000040000FA
:10000000E0B90020F950000057010300DD50000066
:10001000DD500000DD500000DD500000DD5000002C
:100020000000000000000000000000006D52000011
:10003000DD5000000000000011520000DD50000003
:1000400021540000215400002154000021540000DC
:1000500021540000215400002154000021540000CC
:1000600021540000215400002154000021540000BC
:1000700021540000215400002154000021540000AC
:100480004FF0FF0C1CEAD0521EBF1CEAD15392EA77
:100490000C0F93EA0C0F6FD01A4480EA010C400253
:1004A00018BF5FEA41211ED04FF0006343EA5010AD
:1004B00043EA5111A0FB01310CF00040B1F5000FEF
:1004C0003EBF490041EAD3715B0040EA010062F19E
:1004D0007F02FD2A1DD8B3F1004F40EBC25008BF88
:1004E00020F00100704790F0000F0CF0004C08BFA6
:1004F00049024CEA502040EA51207F3AC2BFD2F173
:10050000FF0340EAC250704740F400004FF0000380
:10051000013A5DDC12F1190FDCBF00F000407047BA
:10052000C2F10002410021FA02F1C2F1200200FAF8
:1005300002FC5FEA310040F1000053EA4C0308BFBF
:1005400020EADC70704792F0000F00F0004C02BF10
:10055000400010F4000F013AF9D040EA0C0093F08B
:10056000000F01F0004C02BF490011F4000F013BE5
:10057000F9D041EA0C018FE70CEAD15392EA0C0F53
:1005800018BF93EA0C0F0AD030F0004C18BF31F0BE
:10059000004CD8D180EA010000F00040704790F094
:1005A000000F17BF90F0004F084691F0000F91F038
:1005B000004F14D092EA0C0F01D142020FD193EAFE
:1005C0000C0F03D14B0218BF084608D180EA010086
:1005D00000F0004040F0FE4040F40000704740F062
:1005E000FE4040F44000704781F0004102E000BF4F
:1005F00083F0004330B54FEA41044FEA430594EAE3
:10060000050F08BF90EA020F1FBF54EA000C55EA1D
:10061000020C7FEA645C7FEA655C00F0E2804FEAEE
:100620005454D4EB5555B8BF6D420CDD2C4480EAD0
:10063000020281EA030382EA000083EA010180EA00
:10064000020281EA0303362D88BF30BD11F0004F4E
:100650004FEA01314FF4801C4CEA113102D0404284
:1006600061EB410113F0004F4FEA03334CEA1333BF
:1006700002D0524263EB430394EA050F00F0A780D7
:10068000A4F10104D5F1200E0DDB02FA0EFC22FAD2
:1006900005F2801841F1000103FA0EF2801843FAC6
:1006A00005F359410EE0A5F120050EF1200E012AB7
:1006B00003FA0EFC28BF4CF0020C43FA05F3C018F5
:1006C00051EBE37101F0004507D54FF0000EDCF16E
:1006D000000C7EEB00006EEB0101B1F5801F1BD317
:1006E000B1F5001F0CD349085FEA30004FEA3C0C1B
:1006F00004F101044FEA445212F5800F80F09A8011
:10070000BCF1004F08BF5FEA500C50F1000041EB14
:10071000045141EA050130BD5FEA4C0C404141EB18
:100720000101013C28BFB1F5801FE9D291F0000F13
:1007300004BF01460020B1FA81F308BF2033A3F1C2
:100740000B03B3F120020CDA0C3208DD02F1140CB9
:10075000C2F10C0201FA0CF021FA02F10CE002F1F4
:100760001402D8BFC2F1200C01FA02F120FA0CFCED
:10077000DCBF41EA0C019040E41AA2BF01EB045136
:10078000294330BD6FEA04041F3C1CDA0C340EDC34
:1007900004F11404C4F1200220FA04F001FA02F377
:1007A00040EA030021FA04F345EA030130BDC4F135
:1007B0000C04C4F1200220FA02F001FA04F340EA2A
:1007C0000300294630BD21FA04F0294630BD94F0DB
:1007D000000F83F4801306BF81F480110134013DC2
:1007E0004EE77FEA645C18BF7FEA655C29D094EA33
:1007F000050F08BF90EA020F05D054EA000C04BFB1
:100800001946104630BD91EA030F1EBF002100209B
:1008100030BD5FEA545C05D14000494128BF41F03A
:10082000004130BD14F580043CBF01F5801130BD9E
:1008300001F0004545F0FE4141F470014FF0000029
:1008400030BD7FEA645C1ABF194610467FEA655CDA
:100850001CBF0B46024650EA013406BF52EA03357C
:1008600091EA030F41F4002130BD00BF90F0000F6A
:1008700004BF0021704730B54FF4806404F13204A6
:100880004FF000054FF0000150E700BF90F0000F5F
:1008900004BF0021704730B54FF4806404F1320486
:1008A00010F0004548BF40424FF000013EE700BF56
:1008B00042004FEAE2014FEA31014FEA02701FBFE6
:1008C00012F07F4393F07F4F81F06051704732F018
:1008D0007F4208BF704793F07F4F04BF41F400216F
:1008E000704730B54FF4607401F0004521F00041CD
:1008F0001CE700BF50EA010208BF704730B54FF057
:1009000000050AE050EA010208BF704730B511F057
:10091000004502D5404261EB41014FF4806404F18F
:1009200032045FEA915C3FF4D8AE4FF003025FEA15
:10093000DC0C18BF03325FEADC0C18BF033202EB99
:10094000DC02C2F1200300FA03FC20FA02F001FAF3
:1009500003FE40EA0E0021FA02F11444BDE600BF96
:1009600070B54FF0FF0C4CF4E06C1CEA11541DBF45
:100970001CEA135594EA0C0F95EA0C0F00F0DEF810
:100980002C4481EA030621EA4C5123EA4C5350EAF5
:10099000013518BF52EA033541F4801143F4801346
:1009A00038D0A0FB02CE4FF00005E1FB02E506F0D7
:1009B0000042E0FB03E54FF00006E1FB03569CF02C
:1009C000000F18BF4EF0010EA4F1FF04B6F5007F32
:1009D00064F5407404D25FEA4E0E6D4146EB0606A4
:1009E00042EAC62141EA55514FEAC52040EA5E502D
:1009F0004FEACE2EB4F1FD0C88BFBCF5E06F1ED8D7
:100A0000BEF1004F08BF5FEA500E50F1000041EB0D
:100A1000045170BD06F0004646EA010140EA0200BA
:100A200081EA0301B4EB5C04C2BFD4EB0C0541EADC
:100A3000045170BD41F480114FF0000E013C00F3F1
:100A4000AB8014F1360FDEBF002001F0004170BD15
:100A5000C4F10004203C35DA0C341BDC04F114042E
:100A6000C4F1200500FA05F320FA04F001FA05F2BA
:100A700040EA020001F0004221F0004110EBD37087
:100A800021FA04F642EB06015EEA430E08BF20EAB3
:100A9000D37070BDC4F10C04C4F1200500FA04F356
:100AA00020FA05F001FA04F240EA020001F00041E8
:100AB00010EBD37041F100015EEA430E08BF20EA5B
:100AC000D37070BDC4F1200500FA05F24EEA020EA3
:100AD00020FA04F301FA05F243EA020321FA04F0D2
:100AE00001F0004121FA04F220EA020000EBD37089
:100AF0005EEA430E08BF20EAD37070BD94F0000F89
:100B00000FD101F00046400041EB010111F4801FBC
:100B100008BF013CF7D041EA060195F0000F18BF6D
:100B2000704703F00046520043EB030313F4801FA9
:100B300008BF013DF7D043EA0603704794EA0C0F63
:100B40000CEA135518BF95EA0C0F0CD050EA410679
:100B500018BF52EA4306D1D181EA030101F00041F6
:100B60004FF0000070BD50EA410606BF104619461E
:100B700052EA430619D094EA0C0F02D150EA01362A
:100B800013D195EA0C0F05D152EA03361CBF10466B
:100B900019460AD181EA030101F0004141F0FE410A
:100BA00041F470014FF0000070BD41F0FE4141F48E
:100BB000780170BD70B54FF0FF0C4CF4E06C1CEA8E
:100BC00011541DBF1CEA135594EA0C0F95EA0C0F43
:100BD00000F0A7F8A4EB050481EA030E52EA0335FE
:100BE0004FEA013100F088804FEA03334FF080551F
:100BF00045EA131343EA12634FEA022245EA11154C
:100C000045EA10654FEA00260EF000419D4208BFFC
:100C1000964244F1FD0404F5407402D25B084FEAA9
:100C20003202B61A65EB03055B084FEA32024FF455
:100C300080104FF4002CB6EB020E75EB030E22BFB2
:100C4000B61A754640EA0C005B084FEA3202B6EB72
:100C5000020E75EB030E22BFB61A754640EA5C0021
:100C60005B084FEA3202B6EB020E75EB030E22BFB1
:100C7000B61A754640EA9C005B084FEA3202B6EBB2
:100C8000020E75EB030E22BFB61A754640EADC0071
:100C900055EA060E18D04FEA051545EA16754FEAD3
:100CA00006164FEAC30343EA52734FEAC2025FEAF1
:100CB0001C1CC0D111F4801F0BD141EA00014FF080
:100CC00000004FF0004CB6E711F4801F04BF014351
:100CD0000020B4F1FD0C88BFBCF5E06F3FF6AFAE6D
:100CE000B5EB030C04BFB6EB020C5FEA500C50F1FD
:100CF000000041EB045170BD0EF0004E4EEA113180
:100D000014EB5C04C2BFD4EB0C0541EA045170BD86
:100D100041F480114FF0000E013C90E645EA060ECA
:100D20008DE60CEA135594EA0C0F08BF95EA0C0FF8
:100D30003FF43BAF94EA0C0F0AD150EA01347FF440
:100D400034AF95EA0C0F7FF425AF104619462CE717
:100D500095EA0C0F06D152EA03353FF4FDAE10467A
:100D6000194622E750EA410618BF52EA43067FF4CB
:100D7000C5AE50EA41047FF40DAF52EA43057FF45B
:100D8000EBAE12E74FEA410212F5001215D211D56F
:100D90006FF47873B3EB625212D94FEAC12343F078
:100DA000004343EA505311F0004F23FA02F018BFFA
:100DB000404270474FF00000704750EA013005D1C3
:100DC00011F0004008BF6FF0004070474FF0000086
:100DD000704700BF4A0011D212F5001211D20DD592
:100DE0006FF47873B3EB62520ED44FEAC12343F031
:100DF000004343EA505323FA02F070474FF00000DB
:100E0000704750EA013002D14FF0FF3070474FF089
:100E10000000704780F0004002E000BF81F0004118
:100E200042001FBF5FEA410392EA030F7FEA226C90
:100E30007FEA236C6AD04FEA1262D2EB1363C1BF20
:100E4000D218414048404140B8BF5B42192B88BF8F
:100E5000704710F0004F40F4000020F07F4018BFB2
:100E6000404211F0004F41F4000121F07F4118BFD2
:100E7000494292EA030F3FD0A2F1010241FA03FC7A
:100E800010EB0C00C3F1200301FA03F100F0004362
:100E900002D5494260EB4000B0F5000F13D3B0F12A
:100EA000807F06D340084FEA310102F10102FE2A99
:100EB00051D2B1F1004F40EBC25008BF20F0010009
:100EC00040EA03007047490040EB0000013A28BFA8
:100ED000B0F5000FEDD2B0FA80FCACF1080CB2EB2B
:100EE0000C0200FA0CF0AABF00EBC25052421843A9
:100EF000BCBFD0401843704792F0000F81F400014E
:100F000006BF80F400000132013BB5E74FEA410320
:100F10007FEA226C18BF7FEA236C21D092EA030F8C
:100F200004D092F0000F08BF0846704790EA010F06
:100F30001CBF0020704712F07F4F04D1400028BF33
:100F400040F00040704712F100723CBF00F5000015
:100F5000704700F0004343F0FE4040F4000070474B
:100F60007FEA226216BF08467FEA236301464202F7
:100F700006BF5FEA412390EA010F40F4800070470A
:100F80004FF0000304E000BF10F0004348BF4042B0
:100F90005FEA000C08BF704743F0964301464FF0EC
:100FA00000001CE050EA010208BF70474FF0000348
:100FB0000AE000BF50EA010208BF704711F0004389
:100FC00002D5404261EB41015FEA010C02BF844659
:100FD0000146002043F0B64308BFA3F18053A3F5B8
:100FE0000003BCFA8CF2083AA3EBC25310DB01FAFF
:100FF00002FC634400FA02FCC2F12002BCF1004F83
:1010000020FA02F243EB020008BF20F00100704713
:1010100002F1200201FA02FCC2F1200250EA4C0067
:1010200021FA02F243EB020008BF20EADC707047AD
:1010300042000ED2B2F1FE4F0BD34FF09E03B3EB42
:10104000126209D44FEA002343F0004323FA02F06E
:1010500070474FF00000704712F1610F01D142025A
:1010600002D14FF0FF3070474FF00000704700BFD3
:101070007BB972B90029BEBF00204FF0004106E0E5
:1010800008BF00281CBF6FF000414FF0FF3000F098
:1010900057B8ADF1080C6DE904CE002909DB002B2F
:1010A0001ADB00F061F8DDF804E0DDE9022304B0AA
:1010B0007047404261EB4101002B1BDB00F054F80C
:1010C000DDF804E0DDE9022304B0404261EB4101B8
:1010D000524263EB43037047524263EB430300F019
:1010E00043F8DDF804E0DDE9022304B0404261EB9F
:1010F00041017047524263EB430300F035F8DDF8DD
:1011000004E0DDE9022304B0524263EB430370477D
:1011100053B94AB9002908BF00281CBF4FF0FF315E
:101120004FF0FF3000F00CB8ADF1080C6DE904CEC3
:1011300000F01AF8DDF804E0DDE9022304B070479E
:10114000704700BF10F8012B11F8013B012A28BF9E
:101150009A42F7D0D01A7047034613F8012B002AA1
:10116000FBD1181A013870472DE9F04786468C46A6
:101170000846089E154674461946002B40F0C1806B
:101180008542B2FA82F245D94AB1C2F1200300FA8F
:1011900002FC954094402EFA03F343EA0C0C4FEA0C
:1011A000154EA8B2230CBCFBFEF80EFB18CC08FBB6
:1011B00000F943EA0C43994528D9EB1808F1FF37A9
:1011C00004D2994502D9A8F102072B44A3EB0903E5
:1011D000A4B2B3FBFEFC0EFB1C330CFB00F044EA94
:1011E0000344A04214D92C190CF1FF3304D2A042BD
:1011F00002D9ACF102032C44241A43EA07401EB181
:10120000D440002334607360BDE8F0874746DDE7D3
:101210006346F1E792BB431B01214FEA154EAFB283
:10122000200CB3FBFEFC0EFB1C330CFB07F840EA62
:101230000343984561D9EB180CF1FF3004D298456F
:1012400002D9ACF102002B44A3EB0803A4B2B3FB18
:10125000FEFC0EFB1C330CFB07F744EA0344A742D9
:101260004DD92C190CF1FF3304D2A74202D9ACF1AD
:1012700002032C44E41B43EA0040C0E7C2F1200310
:101280009540944020FA03F12EFA03F34FEA154EED
:101290009040AFB20343B1FBFEFC0EFB1C10190CD7
:1012A0000CFB07F841EA0041884522D969180CF186
:1012B000FF3004D2884502D9ACF102002944A1EBE9
:1012C00008019BB2B1FBFEFC0EFB1C110CFB07F7E7
:1012D00043EA01439F420ED9EB180CF1FF3104D2CF
:1012E0009F4202D9ACF102012B44DB1B41EA0041D1
:1012F00093E76046E3E76146F7E76046A4E76346A5
:10130000B8E7834206D916B9002108467CE7C6E94A
:1013100000E0F9E7B3FA83F78FB9834201D372454E
:1013200008D8BEEB020460EB030301209C461EB903
:10133000002169E73846FAE7C6E9004CF8E7C7F14B
:10134000200CBB400EFA07F522FA0CF42EFA0CF131
:10135000BA401C4320FA0CF3B8404FEA1449014349
:101360001FFA84FEB3FBF9F809FB18300B0C08FBDD
:101370000EFA43EA00439A4540D9E31808F1FF30DA
:1013800004D29A4502D9A8F102002344A3EB0A0330
:1013900089B2B3FBF9F809FB183308FB0EFE41EAEA
:1013A00003418E452CD9611808F1FF3304D28E45D4
:1013B00002D9A8F10203214443EA0040A1EB0E0147
:1013C000A0FB02984145CE46434602D306D14D4587
:1013D00004D20138B9EB020E68EB0403002EA7D04B
:1013E000B5EB0E0261EB030101FA0CFC22FA07F3E4
:1013F000F9404CEA0303C6E9003199E74046C5E7E6
:101400004346D9E7000000002DE9F041B0B00025C7
:10141000394B1D70394B1D7035F0C5FD1EF01AFBA0
:101420000446374E31461EF077FC2B462A460921EA
:10143000204633F0D8FFB6F80480F7884046FFF71F
:1014400025FA2BA3D3E90023FFF78AFAFFF79AFCCA
:1014500006463846FFF71AFA25A3D3E90023FFF71B
:101460007FFAFFF78FFC054602463146204608F01A
:101470007BFB18A818F0CEF9214618A83FF0CCFD48
:10148000204918A83FF0CAFD4FF47A7118A83FF020
:10149000C7FD4246314618A83FF0C7FD1A4E3146F7
:1014A00018A83FF0CCFD684618F0B4F9214668460C
:1014B0003FF0B2FD154968463FF0B0FD4FF47A7138
:1014C00068463FF0ADFD3A46294668463FF0ADFD1F
:1014D000314668463FF0B3FD18A818F009FB68468E
:1014E00018F006FB30B0BDE8F08100BFAFF300801C
:1014F0009A9999999999B93F917D0020907D002002
:10150000F4DF0400A99A000041210000099B0000BB
:1015100008B50D4829F036FB24F076F90B4A032173
:101520000B482EF09AFC25F04DF825F057F80028CE
:10153000F9D103A1D1E9000129F03EFBF3E700BF97
:10154000389C1C000000000034C504009C110600FB
:1015500044D004000000000070B584B00446154675
:1015600000268DF800600846FFF790F90EA3D3E936
:101570000023FFF7F5F9FFF72DFC01908DF80860C7
:101580002846FFF783F908A3D3E90023FFF7E8F91A
:10159000FFF720FC039002226946204624F04EF912
:1015A00004B070BDAFF300800000000080842E41C5
:1015B00010B511494B6800221A714B6883F823203B
:1015C0004FF0080CA3F832C04FF47A74DC620B4C75
:1015D000226062605C65A3F858C083F86420D86517
:1015E000487825F00DFB00B910BD054A40F2AF1157
:1015F000044829F035FBF7E7344100202C41002056
:1016000010E00400A4E4040010B51D494B6800225A
:101610001A704B681A714B685A714B68194C9C616F
:101620004FF0080C83F81CC007245C7701249C77DA
:101630004FF00C0EA3F820E083F8222083F823203B
:1016400083F82440122483F825404FF47A74DC6236
:10165000A3F832C00C4C226062605C65A3F858C0ED
:1016600083F86420D865487825F0CAFA00B910BD1F
:10167000064A4FF40E71064829F0F2FAF7E700BF68
:101680003441002070B7C5352C41002010E0040023
:1016900078E4040070B5264E736800251D707368E9
:1016A0004FF0010C83F804C073685D717368214CBE
:1016B0009C6183F826504FF0080E83F81CE0072445
:1016C0005C7783F81EC00C241C8483F8225083F8B6
:1016D00023C083F824C0122483F82540A3F828E00F
:1016E00083F89050144C25606560572525704F2570
:1016F00065705225A570E070C0F307252571C0F311
:1017000007456571000EA071E171DC64A3F850E03B
:1017100083F864C0DA65707825F072FA00B970BD9C
:10172000064A4FF4CF71064829F09AFAF7E700BF4E
:101730003441002070B7C5352C41002010E0040072
:1017400068E40400F8B51F4CB4F8123403F0010645
:10175000C6EB4625621913751B0A5375D4F8181485
:10176000C1F5A04240F2FD139A4228BF1A4606F185
:10177000080724F8172005F112002044A36892B24C
:10178000194404304AF0DCFBD4F8182434F817303C
:101790001A44C4F81824023324F81730636810354B
:1017A00025440435B21C03EB8202556004EB470765
:1017B000043603EB86035F60B4F812340133A4F8F7
:1017C0001234F8BD3441002038B50446374A0020B1
:1017D000A2F81204C2F8180453680421197053685F
:1017E000012119715368324D1D6283F8280092F867
:1017F0001C5483F8295083F82A1083F82B100725EE
:1018000083F82C50022583F82D5083F82E1083F88E
:101810002F1083F8300083F83150264959634FF078
:10182000FF31196447F25B515964D168D980D1689E
:10183000214BA3FB0123CA1A03EB52031A0AC3F379
:101840000F23C2EB422291421ED001221344174DB6
:10185000A5F81434FFF776FFB5F81434012B15D82A
:10186000124B5B6840F2FF129A83DA83DC65012237
:1018700083F8642000F030FF0B1E0ADA0B4B587817
:1018800025F0BEF950B938BD0022DFE7FFF75AFF57
:10189000E6E7024609482DF050FBEFE7084A40F220
:1018A000ED11084829F0DCF9EDE700BF34410020D4
:1018B00070B7C535BCE404002140800068E0040036
:1018C00010E0040090E4040038B504460E4D0F4AC1
:1018D000032128462EF0C1FA49F01FFC231A0C4AB6
:1018E000032128462EF0C3FA002000F095FB094B97
:1018F00001221A70224693F81C14D868FFF7CAFE1A
:10190000054B00221A6038BD34D00400A0720500D7
:10191000A4E004003441002028410020F0B583B049
:10192000132800F25581DFE810F0E2005301530163
:1019300014002200C100530153015301530103015C
:101940005301530153015301530153010D0115017B
:101950009C00A84B1B78012B40F09680A54B0222DF
:101960001A705B68986F1930FFF722FE8CE0A14B6C
:101970001B78022B19D0042B40F086809E4B1B78DD
:10198000452B03D19C4B5B784E2B3DD09B4A0221CB
:101990009B482EF062FA002364229A49032000F04B
:1019A00083FB944B00221A706EE0934B1B78572BED
:1019B00003D1914B5B784F2B08D0934A022190487A
:1019C0002EF04BFA8B4B00221A705DE08A4B9B780D
:1019D000522BF2D1884BDB78202BEED1864B1B7932
:1019E0004F2BEAD1844B5B794B2BE6D1874A0321FD
:1019F00083482EF032FA7F4B03221A705B68986F8F
:101A00003230FFF7E1FE3FE07B4A9378D17843EA3A
:101A10000123117943EA0143517943EA0163D579FE
:101A20002D022DB292791543724AD268D41A6421DC
:101A300001FB04F4B4FBF2F4714E754A0321304605
:101A40002EF015FAE4B200952346724A032130467F
:101A50002EF018FA2B4622466A49032000F024FB98
:101A60009FE7644BB3F81424B3F812349A421AD89F
:101A7000604AB2F81234642101FB03F3B2F8140493
:101A800093FBF0F000F0C8FA5A4B1B78002B40F0A3
:101A9000AC80614B1868002800F0A18000F6EA30A5
:101AA000FFF712FFA3E0FFF74DFEE1E7514B1B7874
:101AB000022B0AD0042B0ED0584A022150482EF097
:101AC000D6F94C4B00221A70DEE7554A02214C48E9
:101AD0002EF0C3F9F5E7002364224A49032000F001
:101AE000E3FA504A022146482EF0B7F9E9E7414BA4
:101AF0001B78022B0AD0042B0ED04B4A02214048FF
:101B00002EF0B5F93B4B00221A70BDE7474A02217F
:101B10003B482EF0A2F9F5E700236422394903205F
:101B200000F0C2FA424A022135482EF096F9E9E760
:101B3000304C23783F4A022131482EF098F9002397
:101B40002370A1E72B4B1B783B4A02212C482EF037
:101B50008EF999E7274B5A68936FD46F1C1B2E4A56
:101B6000136000F0B9FD0B1E26DA54B3214BDB687D
:101B70004FF4FA5203FB02F2B2FBF4F22F4EA6FB33
:101B80000216B60C2E4D05FB16251D4F00942D4A4E
:101B9000032138462EF076F9009533462A4A032170
:101BA00038462EF06FF922462849022000F07CFAD0
:101BB000104B04221A7067E7024625482DF0BDF944
:101BC000D3E72346234A01210D482EF050F9EFE7D1
:101BD0000346214A01210A482EF049F954E749F009
:101BE0009CFA3230FFF770FE01E0042B36D003B0D0
:101BF000F0BD00BF344100202C41002040E1040032
:101C000034D004002CE10400D8E00400C4E0040057
:101C1000F0E0040014E1040028410020A0E10400E9
:101C200064E1040080E10400F0E10400B8E1040094
:101C3000D4E1040008E2040020E2040083DE1B4338
:101C400040420F0070E2040094E20400C8E2040085
:101C500038E20400D8E2040000E3040049F05DFA31
:101C60001930FFF7D1FCC2E7F0B585B002AF00F044
:101C7000AFF90A202CF013FC7D4C45F25203E360CF
:101C80007C4BA3600F2340F286327B49002000F09A
:101C90000BFA7A4B40F628227949012000F004FA29
:101CA000022024F08FFE607024F0B0FC60600026FB
:101CB0008666744BC366072384F81C34724C734ADF
:101CC000032120462EF0C9F8714A032120462EF048
:101CD000C4F8704A032120462EF0BFF80F2300936A
:101CE00040F286336C4A032120462EF0CBF833466F
:101CF0006A4A032120462EF0BAF86D463E7102234F
:101D00007B7188B002AC14F1100212D00E201AB10F
:101D1000042801DD624B636100233B7002237B706A
:101D2000A2B1082801DD5F4BA36104F11C0300216F
:101D30000AE06FF00040EAE701F108063E4416F8B9
:101D4000086C03F8016B01310129F5D90D283EDD3E
:101D50000E2342B10321397100217971B97101213A
:101D6000F9717868206100216FF300016FF3410180
:101D70006FF382016FF3C501032060F38811C3F391
:101D80000A0363F353216FF31F5100233E4802F00F
:101D90000BF9AD466D4600233B7102237B7188B081
:101DA00002AC14F1100215D00E201AB1042801DD86
:101DB0003D4B636100233B7002237B70BAB108285E
:101DC00001DD3A4BA36104F11C0300210DE06FF02B
:101DD0001B03BEE76FF00040E7E701F108063E4451
:101DE00016F8086C03F8016B01310129F5D90D28AB
:101DF0003BDD0E2342B10321397100217971B971A4
:101E00000121F9717868206100216FF300016FF3FF
:101E100041016FF382016FF3C501032666F3881158
:101E2000C3F30A0363F353216FF31F51164C0023CE
:101E3000204602F0B9F8AD4620231D4A314620461F
:101E40002EF015F80A4DEB6829220092194A314606
:101E500020462EF017F800232B7049F05EF932303F
:101E6000FFF732FD0C37BD46F0BD6FF01B03C1E735
:101E700034410020C4E4040020E3040000E4040032
:101E800034E304001D19000034D00400A0720500E2
:101E900044E3040070E3040084E304009CE30400D2
:101EA000B0E30400C0E30400E4E30400F4E304004E
:101EB00004E4040020E4040008B50D4B93F81C343E
:101EC000013BDBB2062B0FD9094B072283F81C24F8
:101ED000074B93F81C042CF0C0FA0246054B064948
:101EE000012000F0E1F808BD014A82F81C34EFE758
:101EF0003441002000E4040034E30400F0B589B06C
:101F000035F051F810B10546002408E02A4A0121B5
:101F10002A482DF0A2FF09B0F0BD0134E4B2042C30
:101F200036D8274B53F82430002BF6D128461EF024
:101F300011FD234E46F8240004EB44039B000022CD
:101F4000012133F050FA00221E4956F8240034F0E3
:101F500073FC56F8247000203FF09AFD8DF81C00A9
:101F6000C0F307238DF81D30C0F307408DF81E0025
:101F700000220799384634F04DFC134956F82400E6
:101F80001FF0D8F9C9E719F0E7F932202CF0B5FABB
:101F90000022002369460D4829F030FA9DF80030F0
:101FA000042BF0D8064A52F823000028EBD00DF19C
:101FB00001011FF0BFF9E6E7C434050084CF040037
:101FC0005445002058D1040038710500280A00202B
:101FD00010B588B00D4C4FF0FF324FF0FF33CDE914
:101FE00006230823049303230393002302930193FE
:101FF0000093074B4FF480520649204649F01EFAE1
:1020000020462AF035FA08B010BD00BFC00A0020F3
:10201000FD1E0000A07D00201C4A82FB0032C31779
:10202000C3EBA2031A4A12689A422ED000B58DB0B3
:10203000174A136004228DF81420B0B9154B0DEB2C
:10204000020C0FCBACE80700ACF8003001A90DF191
:1020500015004AF016F80022002305A90E4849F0A1
:10206000CCF860B90DB05DF804FB03EB83035B00B3
:102070000A4A19210DF1150041F072F8EBE7084A00
:10208000022108482DF0E9FEECE7704767666666B6
:10209000D00000201C350500280A0020E03405008F
:1020A000F034050084CF04000EB410B589B00428C4
:1020B00016D804468DF804000CAB00930B9A192136
:1020C0000DF105002CF0B2F80022002301A90B4805
:1020D00049F093F850B909B0BDE8104003B070471B
:1020E000074A012107482DF0B8FEF4E72346064AC7
:1020F000022104482DF0BBFEEDE700BF280A0020B6
:102100002C35050084CF04004835050038B58368B8
:1021100005699C697CB112F4000F06D02D6801237B
:102120008B401D4201D082F0C062044B134002F08C
:10213000B072A04738BD6FF05700FBE740000006C3
:10214000054A13780133DBB21370012B02D9034B1C
:1021500001221A70704700BF917D0020907D002001
:1021600010B51A4849F024F8B0B14FF4803118483E
:102170002CF026FA0146B8B94FF0B86114482CF09B
:10218000EAF90446C0B91349134B4B6001238B6035
:102190000E482CF02AFA05E00C4B19680F482CF079
:1021A000CCFE0124204610BD0023084A12680C48CA
:1021B0002CF0C3FE0124F5E70023044A126801460F
:1021C00008482CF0BAFE0124ECE700BF84C30400E9
:1021D000303805006C450020E92100007C35050001
:1021E000A4350500D035050008B548F096FF094B29
:1021F0001B68C01AB0F5FA7F03DC074829F056FACD
:1022000008BD48F08AFF034B1860044B01221A7086
:10221000F3E700BF68450020880A0020927D002077
:102220002DE9F04182B000AF794A032179482DF0C1
:1022300014FE48F072FF054600F08EF9A0B900F0D8
:1022400025FA75482CF079FE744A032171482DF067
:1022500004FEFFF7D9F819F07FF8714B1B7843B9EA
:1022600014202CF0CCF9F6E701466E482CF065FE00
:10227000EAE734F098FE0AF0CBFD4FF47A702CF0C8
:10228000BEF9694848F094FFE8B9684A01216148FD
:102290002DF0E3FDFFF764FFD8B923F095FA23F0A2
:1022A000BFFD48F0CBFA391D46F08AFEB8B1594C53
:1022B0005F4A032120462DF0D0FD5E4A03212046CF
:1022C0002DF0CBFD1EE04FF4D0115B482CF078F9D7
:1022D000E0E75A4A01214F482DF0BFFDDDE73B7989
:1022E0004C4C574A032120462DF0C1FD7B79554ABD
:1022F000032120462DF0BBFDD9E740F23910002123
:102300002AF076F800F0E8F9B1F1FF3F08BFB0F12C
:10231000FF3FF2D000F0D2F900F0DEF9E84688B0D5
:102320006B4613F1100250D0102452B12646042CF3
:1023300003DDDFF814C1C3F814C0082E01DD986175
:10234000D9610F2C44DD10243AB1042139700021E9
:102350007970B970F9703868186100216FF3000165
:102360006FF341016FF382016FF3C501032666F33A
:102370008811C4F30A0464F353216FF31F51254CF1
:102380000023204601F010FEC54648F0C6FE431B60
:102390002E4A314620462DF06AFD2D4A3146204610
:1023A0002DF05BFD32202CF02AF92A4A31462046D6
:1023B0002DF053FD48F0B1FE0346274A3146204632
:1023C0002DF055FDFFF750FC19E06FF00044ACE72D
:1023D0006FF01B04B8E7214B00221A70FFF76CFD69
:1023E0001F4A03210B482DF038FD0CE047F612225E
:1023F00000231C4829F0A2F90F482CF0ECF8174BE9
:102400001B78002BE7D1154B1B78002BEED0F3E7A0
:1024100008360500B4CF04002436050078360500E0
:10242000907D002054360500CCC30400A036050082
:10243000283705004837050038380500B83605004C
:10244000E836050008370500703705009C370500A1
:10245000B8370500E037050000380500927D002000
:102460001C380500880A002008B52421034830F0F4
:102470006FFB034829F0C4FA08BD00BF60010020CB
:1024800078450020F0B583B000AF2D4B1B782D4A66
:102490005233190102EB031358685558EFF31182B8
:1024A000202383F31288BFF36F8F274B1D60586082
:1024B00082F31188BFF36F8F6C4688B06B4613F1BF
:1024C000100237D010214AB18C46042901DD1F4E7D
:1024D0005E61BCF1080F01DD9D61D8610F292CDD23
:1024E0004FF0100C3AB10421397100217971B971A2
:1024F000F9717868186100216FF300016FF34101F1
:102500006FF382016FF3C501032363F38811CCF3EA
:102510000A0C6CF353216FF31F5100230C4801F098
:1025200043FDA546012224210A4830F00DFB0C375B
:10253000BD46F0BD6FF00041C5E76FF01B0CD1E761
:10254000937D002000200E50880B00204C380500A1
:102550004CD004006001002010B588B03C493D48D3
:1025600048F016FF06F016F8002849D0012005F0C3
:10257000F3FE394805F028FF0446002848D1002121
:10258000364830F0C8FA044610B110F1780F47D140
:102590003349324830F0CFFA0446002846D10123AF
:1025A0008DF81F302F4B0593002306932E4A03AB63
:1025B00092E8030083E803000DF11F0200920193EB
:1025C00005AB02936A462421244830F094FA04466D
:1025D000002831D12421214830F0C2FA1E4B19784D
:1025E0008900C9B2214A01F1A04101F562212FF011
:1025F0007EFD044630BB1D4B186805F047FA0CE021
:102600001B4A01211B482DF028FC6FF0120404E046
:10261000194A012117482DF020FC204608B010BDB2
:10262000164A012113482DF018FCF6E7144A01213F
:1026300010482DF012FCF0E7124A01210D482DF050
:102640000CFCEAE7104A01210A482DF006FCE4E7F9
:102650008524000078450020937D00206001002043
:10266000947D002069240000D0D00400884500201B
:102670006C3805004CD0040090380500B4380500D3
:10268000DC380500003905002C39050000B583B0A1
:1026900001222421064830F057FA04230093012335
:1026A000044A032104482DF0EDFB03B05DF804FB60
:1026B00060010020503905004CD0040008B52421E9
:1026C000034830F045FA034848F087FE08BD00BFD4
:1026D000600100207845002038B5EFF311822023F7
:1026E00083F31288BFF36F8F094B1C685D6882F318
:1026F0001188BFF36F8F54EA050305D005F03CFE47
:10270000001B61EB050138BD4FF0FF300146FAE7D1
:10271000880B00202DE9F04F91B0059202931346EB
:1027200002F004020092C3F3C20210F0030301930B
:1027300040F02B8280468A460132041D00284FD08B
:10274000B8F1000F05D0A4EB08030433534500F2A1
:102750001F82029B5D1E019B049306930393002638
:102760004FF0FF3B0427B946B8F1000F01D0029BA0
:102770002360531E0793002A40F35D81059B13F0ED
:10278000020228D00120A4EB08018B081AB1B1F590
:10279000007F80F0038203990F2900F20282B8F1D2
:1027A000000F00F06081DBB201F140026A4402F8E0
:1027B000103C02F820BC002800F0518163F07F0338
:1027C00001F140026A4402F8103C049B0133049377
:1027D000039B0133039304340022CC4640463DE082
:1027E00001F0070A5444CAF1080AA9E7002634E0B8
:1027F000002632E0002630E00827BC462DE02529DF
:102800002BD10BF1010B01260427BC4625E04729FB
:10281000EED82A2914D32A39C9B24FF0010E0EFA84
:1028200001F14FF6DA7E11EA0E0F16D111F0625F58
:1028300040F0C08011F0010F40F08C8000260CE0C9
:10284000252903D10BF1FF3B002606E001D9002624
:1028500003E0202901D02329CCD11D466B1C6978C7
:10286000002900F01981002EC9D07A29BED84C2940
:10287000CDD34C392E2961D80FF2040E5EF821F029
:102880005B2800003D2900003D2900003D29000093
:102890003D2900003D2900003D2900003D290000A0
:1028A0003D2900003D2900003D2900003D29000090
:1028B0004D2900003D2900003D2900003D29000070
:1028C0003D2900003D2900003D2900003D29000070
:1028D0003D290000B52900003D2900004D290000D8
:1028E0004D290000B5290000B5290000B5290000D8
:1028F0005B2800004D290000F92700003D29000059
:102900005B2800003D290000112A00004D2900002D
:10291000112A00003D2900003D290000192A00006D
:10292000472900004D2900003D2900003D290000F5
:102930004D2900003D2900004129000000268CE7B8
:102940000427BC4689E70427BC4686E729786C291A
:1029500024D000263C44013CB4FBF7F407FB04F40C
:1029600020B1211A6144514500F21581002A58D145
:10297000BCF1040F00F08880BCF1080F40F0148116
:102980001A99073121F0070101F108051A95D1E9DB
:10299000008908B1C4E9008908345EE713F8021C15
:1029A0006C2903D000260427BC46D3E7002608275D
:1029B000BC46CFE729784C291AD01A99073121F063
:1029C000070101F108061A96D1E90067073424F0DF
:1029D000070440B1211A0831514513D829784C29F0
:1029E00013D0C4E90067083400260827BC4634E742
:1029F0001A99073121F0070101F108061A96D1E969
:102A00000067E3E76FF01B00BCE0C4E90067EAE79A
:102A100000260427BC469DE7324600260427BC4614
:102A200098E7E14680461A9A111D1A91126802929F
:102A3000079A1D4698E6624B029A9A4204D3614B6C
:102A40009A420AD3002300E00023002B7FF496AEC5
:102A5000059B03F00202002095E60123F5E7069BA3
:102A600001330693B4E610B10AF1010AB0E6009B07
:102A700013B10AF1020AABE60298FEF76DFB0AEB0E
:102A8000000303F1020AA3E61A990D1D1A950968BD
:102A900000B121600434E0E68046231AB3F5806F6C
:102AA00080F0858090B1002202609B080370009B3B
:102AB00083B1069BC370049B88F802301BBB019D49
:102AC000DDF80C90DDF810B0029F3DE05344A3F117
:102AD000080057E0069B4370EDE701339842EED9BA
:102AE00003F140026A4412F8101C12F9102C002A5B
:102AF000F3DA01F07F01A4EB08020132524559D804
:102B000004F8011BE9E7019B0398E7E7009B43B347
:102B100005F140036B4413F8203C04F8013B019E8F
:102B2000A4EB080333440133534546D805F1400371
:102B30006B4413F8103C04F8013B324639462046FA
:102B400049F0FEF934440135A94519D9BBF1000F0C
:102B5000DCD005F140036B4413F9103C002BD5DAAF
:102B6000F1E705F140036B4413F8103C58F823706B
:102B7000002248F823203846FEF7EEFA461CCFE73D
:102B8000A4EB080011B0BDE8F08F6FF00D00F9E77D
:102B90006FF01B00F6E76FF01B00F3E76FF0150016
:102BA000F0E76FF01500EDE76FF01500EAE76FF062
:102BB0001500E7E76FF01B00E4E76FF01B00E1E7AB
:102BC0005CC204005C4006002DE9F04F97B000AFF6
:102BD0008346BA613B61D7F88030C3F3C0033B62E0
:102BE000F96011B92CF00AF9F8609BF80260B1465F
:102BF00036B1D7F8803013F0010F0DD1002300E07B
:102C000000239BF803207A6242B1D7F8802012F0AB
:102C1000020F22D1002202E00123F2E7002202B9D2
:102C2000EBB19BF80050AA00BA60DBF804207A618F
:102C30000BEB8505BA69F2B1002B40F00481B9F1C4
:102C4000000F00F00F81D7F8803013F0040F40F030
:102C50000D810020F8610646F9E00122DFE7BB693B
:102C60001BB13A69F96858469847FC6820465C37BA
:102C7000BD46BDE8F08FFC68E3B94D4400233B61DD
:102C800023E00444013501364E451AD22A78002348
:102C90005BF822201946B8692CF0C5F8BAF1000F8C
:102CA000EFD0D7F888309845EBD22AF8180008F111
:102CB0000108E6E70026C7F81C80B046D7F884A0D4
:102CC000E2E7C7F81080D7F81C80D7F8803003F00F
:102CD0000503FB604FF0000AA146C7F81CB09CE05A
:102CE00000253B6A7BB9002D79D0D7F8803013F0EE
:102CF000010F79D1FB68002B6FD10223A9EB0309E7
:102D000088E00125EDE7594678692CF0D2F80028D3
:102D1000E9D06C46002387F82C30022387F82D3049
:102D20008AB0694611F1100237D012251AB1042D6C
:102D300001DDB34B4B61002387F82830022387F86D
:102D400029306ABB112D45DD122362B1042087F8BA
:102D50002C00002087F82D0087F82E00012087F82E
:102D60002F00F86A08616FF300086FF341086FF3F2
:102D700082086FF3C508022161F38818C3F30A03C0
:102D800063F353286FF31F58002341469D4801F019
:102D90000BF9A546A9F102093CE06FF00045C5E733
:102DA0002B46082D01DD786988610C2B01DDC1F807
:102DB0001CB001F12003002009E000F1300C07F104
:102DC000280EF4441CF830CC03F801CB0130012864
:102DD000F3D9B7E76FF01B03B7E701238EE7D7F806
:102DE000803013F0020F15D0002322461946B8692F
:102DF0002CF019F8D7F8843053B13B69D7F8882004
:102E0000934205D2D7F8842022F8130001333B61A6
:102E1000013881440AF1010A35467B6A9A4510D28D
:102E20002E4616F802BB6B78FA6952F82340764BAF
:102E30009C42FFF455AF754B9C42FFF462AF0025F6
:102E40004FE74C4612E707F144000023FB6118B13D
:102E50004A46294649F074F84D444FF00008C7F837
:102E600004901EE00020F8610646F0E7FE6107F1DD
:102E700034000026EBE700253B6A33BB002D3BD036
:102E8000D7F8803013F0010F26D0731C06F1300202
:102E900007F12801561806F8149CDEB208F1010863
:102EA00025467B6A98454AD22C4614F802AB95F821
:102EB00001905BF82930544A9342DCD3534A934241
:102EC00001D30025D8E70125D6E7514678692BF0D4
:102ED000F0FF0028D2D0E1E7D7F8803013F0040FDC
:102EE000DCD0FA69531C303207F128010A4402F899
:102EF000249CDBB2FB61D1E7D7F8803013F0020FDE
:102F000009D0731C06F1300207F12801561806F8A3
:102F1000149CDEB2C2E7F869431C00F1300107F1EE
:102F200028028A1802F824AC02460232D2B2FA61B0
:102F300007F1580252FA83F303F8249CAEE7D7F85E
:102F400004909BF8003087F854309BF801303344EC
:102F500087F85530D7F8803013F0020F0ED1FB6997
:102F6000C3F3470387F85730D7F8803013F0010FC9
:102F700006D113F0040F3ED1002302E00023F1E755
:102F8000002387F85630DBF800003863786DCBF803
:102F90000000D7F810804246B9685846D7F818A004
:102FA000D047041EFFF662AE386BCBF80000C7F8BE
:102FB00010804246F96907F13400D04700285EDBF3
:102FC00004EB0008B96849447B6A01EB4301D7F878
:102FD00010904A46FB68591A2846D047041EFFF64F
:102FE00045AE08EB04054FF00008C7F824B0B3461F
:102FF0005446CA4621E0FB69C3E74FF0000909E0E7
:103000008439050064CF04005CC204005C40060003
:103010004FF000095246012107F12C00A04700287B
:103020002FDB05444B463246514620462BF0FBFE33
:10303000002828DB054408F10108D84518D208F11A
:10304000300307F12802134413F8143C87F82C309E
:103050007A6A52F82360D7F88430002BCDD0D7F8A5
:1030600088309845D4D2D7F8843033F81890D1E717
:103070003A6900210846BB6998472C46F6E50446A4
:10308000F4E50446F2E50446F0E500BF014B1860A4
:10309000704700BFD400002010B586B004460390EE
:1030A000049100210591009103A9064800F0DAF887
:1030B000059B049A934201DA0022E254059806B077
:1030C00010BD00BF05EF020084460268002006E044
:1030D00000EB8000013203EB4003A3F130001378D2
:1030E0000349C95C11F0040FF2D1CCF800207047FD
:1030F000293F060084460846012226E09CF800305D
:1031000043F004038CF80030F2B101301CE09CF86D
:10311000003043F008038CF80030F5E79CF80030ED
:1031200043F010038CF80030EEE79CF8003043F0D9
:1031300020038CF80030E7E79CF8003043F04003B0
:103140008CF80030E0E7002242B30378203B102BDC
:10315000F9D801A151F823F01D31000047310000DA
:10316000473100002B31000047310000473100009B
:10317000473100004731000047310000473100006F
:10318000473100000F31000047310000FD300000E2
:103190004731000047310000393100009CF8003011
:1031A00003F04403442B00D070479CF800306FF3C9
:1031B00086138CF80030F7E72DE9F84F05460C46EA
:1031C000934699460A9ED078254B13F800A00AF042
:1031D000030A2CF053F8074614E0BAF1010F20D08F
:1031E000D2B25732D2B232703A46434628462146CE
:1031F000FDF78EFFBD4274F1000416D34E4514D97D
:1032000005460C464FF000083A46434628462146FC
:10321000FDF77EFF013E092ADFD8D2B23032D2B2AA
:10322000E1E7D2B23732D2B2DDE79BF8003013F0DB
:10323000200F03D0082F04D0102F09D03046BDE84E
:10324000F88F9BF8023043F008038BF80230F5E763
:103250009BF8023043F010038BF80230EEE700BF1A
:10326000293F06002DE9F04F91B006460D469146E4
:103270000393002499F80000002800F0B982252863
:1032800008D02946B0470028C0F2B382013409F1C2
:103290000109EFE70023049305930693079308932E
:1032A0000993494606A82BF0C7FF02909DF81930F4
:1032B00013F0010F00F09780039B1A1D03921F6803
:1032C000002FC0F288809DF8193013F0040F00F031
:1032D0009C80039B1A1D0392D3F800A0BAF1000F43
:1032E000C0F28A800023079308939DF81A3003F0F8
:1032F00007039DF81910C1F3C301012B00F08E8064
:10330000022B00F0D380042B00F02481032B00F06B
:103310003B819DF8188018F0030B40F03B819DF82D
:103320001B30253B532B00F2CA81DFE813F040012C
:10333000C801C801C801C801C801C801C801C80145
:10334000C801C801C801C801C801C801C801C80135
:10335000C801C801C801C801C801C801C801C80125
:10336000C801C801C801C801C801C801C801C80115
:10337000C801C801C801C801C801C801C801C80105
:10338000C801C801C801C801C801C801C801C801F5
:10339000C801C8019D01C801C801C801C801C80110
:1033A000C801C801C801C801C8017A018301C80168
:1033B000C801C801C8018301C801C801C801C8010A
:1033C000BD019D015E01C801C8014D01C8019D01FB
:1033D000C801C8019D019DF8183043F004038DF821
:1033E00018307F426FE79DF91830002B02DB4FF059
:1033F000FF3768E7079F66E79DF819306FF34103D1
:103400008DF819304FF0FF3A6CE713F0020F02D03D
:10341000DDF820A066E74FF0FF3A63E7CB1E042BF0
:1034200004D8DFE803F00B1D29353500039B1A1D76
:1034300003921B68DA170493059206E0039B1A1D9A
:1034400003921B68DA1704930592012928D00229F8
:103450007FF45FAFBDF91030DA170493059258E797
:10346000039B073323F0070303F108020392D3E918
:103470000023CDE90423E8E7039B073323F0070388
:1034800003F108020392D3E90023CDE90423DCE72A
:10349000039B1A1D03921B68DA1704930592D4E765
:1034A0009DF91030DA170493059232E7CB1E042BF6
:1034B00004D8DFE803F00B1F35414100039B1A1DC0
:1034C00003921B680493002305931EE09DF81B30B4
:1034D000632B07D0039B1A1D03921B6804930023E0
:1034E000059312E0039B1A1D03921B6804930023AB
:1034F00005930AE0039B073323F0070303F1080257
:103500000392D3E90023CDE9042301291CD0022929
:103510007FF4FFAEBDF81030049300230593F8E666
:10352000039B073323F0070303F108020392D3E957
:103530000023CDE90423E8E7039B1A1D03921B68CF
:10354000049300230593E0E79DF8103004930023D3
:103550000593DEE608290BD0039B073323F007030E
:1035600003F108020392D3E90023CDE90423D0E656
:10357000039B073323F0070303F108020392D3E907
:103580000023CDE90423C4E6039B1A1D03921B68A4
:103590000493BEE6029F3B464A46294630462BF03E
:1035A000A1FE0028C0F225810444B94662E62946FE
:1035B0002520B0470028C0F21C810134D8460DF107
:1035C0003E0A4FF000097FE0DDF81090BAF1000FDD
:1035D00006DA4846FDF7C0FD09EB000AD84673E05D
:1035E0005146484648F068FDF6E7049828B9D846A1
:1035F000DFF804A2AAF1050966E00DF13E0300938D
:103600000AAB06AA0021FFF7D7FD81469DF81A30C4
:1036100043F010038DF81A3078238DF81B30D8460C
:103620002DE0049B8DF82830D8460DF1290A0DF1C4
:10363000280949E018F0080F05D118F0100804D047
:103640004FF0200801E04FF02B08049A059B002B57
:1036500002DB0492059308E0524263EB43030492B9
:1036600005934FF02D0800E0D8460DF13E0300937E
:103670000AAB06AADDE90401FFF79EFD8146BAF117
:10368000000F50DB0DF13E03A3EB09039DF818205A
:103690006FF386128DF818209A4547D9AAEB0303D9
:1036A00007930DF13E0A0FE02246049906A82BF07D
:1036B000FAFDD8460DF13E0A4FF0000904E0D84665
:1036C0000DF13E0A4FF00009B9F1000F00F08D80B6
:1036D000AAEB0902B8F1000F00D001329DF81A10D0
:1036E00011F0100F25D00232079B134411F0400F48
:1036F00001D0089A1344002F31DDFF1A9DF81830CD
:1037000013F0040F2BD113F0400F17D0B8F1000FB6
:1037100017D029464046B04700286ADB0134D84616
:103720004FF0300B0FE00DF13E0ACDE70DF13E0AF0
:10373000CAE711F0080FD7D00132D5E74FF0200BC0
:1037400001E04FF0300B3B465F1E002B07DD2946A2
:103750005846B04700284CDB01343B46F4E7B8F14B
:10376000000F05D029464046B047002841DB013410
:103770009DF81A30C3F30012C3F3C0031A4305D0F7
:1037800029463020B047002833DB01349DF81A3039
:1037900013F0100F06D029469DF81B00B0470028F3
:1037A00027DB0134079B03F1FF38002B07DD294697
:1037B0003020B04700281CDB01344346F3E7534672
:1037C0004A46294630462BF08DFD002811DB044483
:1037D000002F07DD29462020B047002809DB0134EF
:1037E000013FF5E7DDF8089044E5DDF8089041E594
:1037F000204611B0BDE8F08F413A050008B50446F7
:10380000EFF31183202383F31288BFF36F8F03F04C
:1038100017FF20462CF000FE02482BF08EFB2CF008
:10382000ECFCFCE7443A05002DE9F04383B0044684
:1038300008461546238B13F0080F05D103F0070641
:1038400000230093019354E0012909D043F02003A1
:10385000238385F31188BFF36F8F03B0BDE8F08336
:1038600043F010032383F4E720462CF07BF842E07A
:10387000D4F814904A46694620462CF08CF84FF054
:103880000008238B03F00707B74269D0A268002A1B
:1038900066D0012243F00803238385F31188BFF328
:1038A0006F8F002A64D1009B2BB14B463A46694684
:1038B00020462CF0E9F8B8F1000F02D03449204638
:1038C000C047EFF31185202383F31288BFF36F8F76
:1038D000238B23F008032383238B13F0100F4DD089
:1038E00023F0100323830120268B06F0070600280F
:1038F000AFD00228B8D00028ABD0013804282BD88C
:1039000001A353F820F000BF7138000059390000BE
:103910001D39000031390000453900002369D3F812
:103920000080062120462BF0F3FF4FF00009A8E7A6
:103930002369D3F80480042120462BF0E9FF4FF0DF
:1039400000099EE72369D3F80880052120462BF063
:10395000DFFF4FF0000994E74FF00008C14690E701
:10396000009A0AB1002295E7B8F1000F92D1B3E7AF
:103970004A46394620462BF0D3FF94E713F0200F38
:1039800004D023F0200323830220ADE70020ABE71F
:10399000B7FA020038B505460B4C00E010340B4B6B
:1039A0009C420FD263685B79002BF7D029462046F2
:1039B0002CF085F90028F1D023681B6829462046A1
:1039C0009847EBE738BD00BF54D0040064D0040032
:1039D00070B506460D46084C04E02A46314620469E
:1039E00098471034054B9C4204D223689B69002BF6
:1039F000F3D1F6E770BD00BF54D0040064D00400DA
:103A00002DE9F041074605460AE007EA0807144B8E
:103A100003EB06135B680422196820462CF0B1F909
:103A2000D5B195FAA5F6B6FA86F60D4C04EB061458
:103A30000123B3406FEA030825EA0305237B002B2B
:103A4000EED03301064AD3581B69002BDDD0204647
:103A500098470028E4D1D8E73846BDE8F08100BF98
:103A600054D004002DE9F04180460F461D4BD3E8A9
:103A7000EF5F6A1CC3E8E12F0029F8D16DBB1A4C37
:103A8000002607E063680422196820462CF079F9C3
:103A900001361034154B9C4211D2237B002BF7D0FA
:103AA00020462CF000F923681B69002BEAD0204641
:103AB00098470028E6D00123B3401D43E8E7B8F15A
:103AC000000F0BD055B12846FFF79AFF0546002F8F
:103AD000F8D00A202CF0F9F8F4E700252846BDE8D4
:103AE000F08100BFA045002054D0040064D0040041
:103AF00008B5064B186018B1054B1B68092B00DC94
:103B000008BD044827F0D2FDFAE700BF9445002025
:103B10009C450020700A002008B5024827F0C6FD29
:103B200008BD00BF700A002030B589B000220F49DF
:103B30000F4847F0ABFE0F4D00220023CDE90623CE
:103B4000002404940E2303930294019400940A4BDE
:103B50004FF440720949284647F070FC084928464E
:103B600028F022F8204609B030BD00BF193B000004
:103B7000601C0020900B0020D93E0000A08D00208A
:103B800044700500014B53F8200070476070050039
:103B900048B108B5054A1060054B1960084600F0A9
:103BA000F9FC002008BD6FF015007047D800002018
:103BB0009045002008B5054B1B781BB1034B012233
:103BC0001A7008BD024827F071FDF7E7957D0020C7
:103BD000700A002008B50C4BD3E8EF1F0131C3E891
:103BE000E21F002AF8D130B9084847F05BFE0848C8
:103BF00027F05CFD08BD074BD3E8EF1F0139C3E890
:103C0000E21F002AF0D0F7E798450020601C002052
:103C1000700A00209C450020044B00200146D3E898
:103C2000EF0FC3E8E21F002AF9D170479845002042
:103C300038B5FFF7F1FF0546094C00E01034094B99
:103C40009C420BD263685B79002BF7D023685B68DA
:103C5000002BF3D0294620469847EFE738BD00BF38
:103C600054D0040064D00400034B18680028D4BF6B
:103C700000200120704700BF9845002010B5044C7B
:103C8000044920462BF09FFC034B1C6010BD00BF75
:103C9000080900204C7005008C45002008B5002361
:103CA0000C4A13700C4A13600C4A13600C490D48FF
:103CB000FFF76EFFFFF7E2FF0B4A06E00A4BD31A4D
:103CC0001B11013351680B711032084B9A42F5D326
:103CD00008BD00BF967D0020984500209C4500202F
:103CE00040420F00C3FC020054D0040064D0040022
:103CF00008B5014601482CF016F808BD0809002057
:103D000008B502482BF042FD08BD00BF080900209D
:103D100008B50146024B18682CF00BF808BD00BF2F
:103D20008C45002008B502482CF007F808BD00BFFC
:103D30000809002010B582B000220023CDE900233D
:103D4000284B187808B902B010BD68462CF00DF861
:103D5000044660B1FFF71EFE2046FFF7D9FF224B55
:103D6000D3E8EF1F0139C3E8E21F002AF8D1FFF7BB
:103D70007BFF58B91D4A1368516813F57A7341F1F6
:103D8000000113605160FFF7CDFFDCE747F06FFDE6
:103D900002464B0143EAD0634001801A63EB010302
:103DA0009B0043EA9073800010EB020C43EB01018F
:103DB000C90047F6122200234FEACC0041EA5C71A9
:103DC000FDF7A6F9094A13685268C01A61EB0201AF
:103DD00040F2E933984271F10001CBD3FFF728FF9D
:103DE000C8E700BF957D00209C450020581C00209E
:103DF0000F4B1B7803B1704710B500210120FFF76E
:103E000031FE0C4C00E010340B4B9C4208D263682E
:103E10005B79002BF7D023689B6820469847F2E730
:103E2000FFF788FF0028FBD1014B01221A7010BD5B
:103E3000967D002054D0040064D0040010B582B0F8
:103E4000184BD3E8EF2F511CC3E8E01F0028F8D12E
:103E5000154B1B7863B9154B1B68B3B1BAB1092A6E
:103E600013D1134847F01EFD124827F01FFC0CE049
:103E7000EFF31184202383F31288BFF36F8FFFF7D2
:103E800059FF84F31188BFF36F8F02B010BD002279
:103E90000023CDE9002347F612220023044828F02E
:103EA0005FFEF2E79C450020967D002094450020AF
:103EB000601C0020700A002010B50446044B1B68EB
:103EC0009847A060214603482BF053FF10BD00BF68
:103ED000D8000020080900202DE9F0410021084603
:103EE000FFF7C0FD804640B140F21B66002728F076
:103EF000E3FAFFF7FDFD002515E04FF0FF364FF028
:103F0000FF37F4E74046FFF77BFD804670B94FF07E
:103F1000FF364FF0FF3709E02C4632463B46094852
:103F200027F00CFC2546B8F1000FEBD1FFF702FF9C
:103F300004460028F6D1002DEED000210846FFF7F8
:103F400047FDEAE7700A00200248034BC01AC00888
:103F5000704700BF54D004005CCF040010B50C467D
:103F6000FFF7F2FFA04203D9024B53F8340010BD13
:103F70000020FCE75CCF040000B589B005920693F1
:103F80000023079362B1074A0C9B02930B9B01939A
:103F90000A9B009305ABFEF717FE09B05DF804FB22
:103FA0000022F1E799FD02002DE9F04F8BB004AF3C
:103FB00005461E468846C1F34A24002C00F089803D
:103FC00091460022FA603A617A6104230293FB1859
:103FD00001930A23009307F10C0321464846FEF79C
:103FE000F3FDB0F5006F58D3D9F804106D460023E7
:103FF0003B7302237B738AB004AC14F1100217D018
:1040000012201AB1042801DD3B4B636100233B7091
:1040100002237B70CAB10346082800DDA1610C2B86
:1040200002DD40F2FF73E36104F1200300210AE0A6
:104030006FF00040E5E701F118063E4416F8186CF1
:1040400003F8016B01310129F5D9112822DD122372
:1040500042B10421397300217973B9730121F973D5
:10406000F868206100216FF300016FF341016FF3E5
:1040700082016FF3C501022060F38811C3F30A03C4
:1040800063F353210023C1F313011C482BF007FFF6
:10409000AD462DE06FF01B03DAE760F35328C0F361
:1040A0000A0A0AEB1850173020F007008008FFF7C3
:1040B0001FFE8346B0B104230293FB1801930A2329
:1040C0000093534600F1100221464846FFF754FF83
:1040D00008E004EB1154173424F00704A008FFF79C
:1040E00007FE834633464246294658462BF06DFE6E
:1040F0001C37BD46BDE8F08F80700500BCCF0400C2
:104100002DE9F04F85B080460D4617461E46DDF876
:1041100038B0DDF84090B9F1000F41D0119B039306
:1041200000934B460F9A10210020FEF7F3FAB0F5EA
:10413000006F2DD282460BEB0003173323F00703E9
:1041400000246FF300046FF341046FF3820468F3FB
:10415000C50467F3881460F353246BF31F54980865
:10416000FFF7C6FD074650B11030B9F1000F06D079
:10417000119B00934B460F9A5146FEF7CBFA3346FC
:104180002246294638462BF020FE05B0BDE8F08FC8
:1041900040F2FF73034A022103482BF068FEF4E764
:1041A0000020C7E7C0700500BCCF0400406820B104
:1041B000034BC01A40F3CF0070474FF0FF307047F9
:1041C0005CCF04000EB400B584B0014605AB53F8D3
:1041D000042B0393002000900348FFF743F804B03A
:1041E0005DF804EB03B07047D5FE020010B584B053
:1041F00011F0440F05D01A4B1B6833B9002004B0EE
:1042000010BD1849FFF7DEFFF9E717490968B2FB4F
:10421000F1F2B2FBF3FC03FB1C224FF47A7E0EFB9F
:1042200002F2B2FBF3F403FB14210EFB01F1B1FB2C
:10423000F3F10E4AA2FB0C32D20A4FF4616303FB86
:1042400012CC0B4BA3FB0CE35B0902910194C3EB73
:104250000311ACEB810100910649FFF7B3FFCEE7F4
:10426000A8450020F8700500A4450020C5B3A29120
:10427000898888880471050061B108B52AB1064AA9
:1042800052F8232012B9054A00E0044A0449FFF716
:1042900099FF08BD704700BFA4710500207105009B
:1042A00040E304002DE9F04105461746069EDDF87F
:1042B0001C8081B900242EB1324611492846FFF7EF
:1042C00081FF0444B8F1000F14D06FB1099B042B97
:1042D00013D00C4909E00C4B099A53F822200B49E2
:1042E000FFF770FF0446E6E7064942462846FFF717
:1042F00069FF04442046BDE8F0810549F5E700BFA9
:104300003C7105002C710500B87105003471050081
:10431000287105002DE9F04F87B005460C46049240
:1043200005939DF84C7001F0020B01F0010AC1F3F6
:10433000C00801F480792BF022FD18B3024616491B
:104340002846FFF73FFF0646BBF1000F1CD13A4657
:10435000514628462BF0EDFDB9F1000F01D00023A6
:1043600011930397129B0293119B0193109B00934F
:104370000023049A41462846FFF794FF304407B0D3
:10438000BDE8F08F0026DFE7059A21462846FFF7B3
:104390002DFF0644DBE700BF4071050011F0100F50
:1043A0000BD108B511F0200F03D00449FFF70AFF25
:1043B00008BD0349FFF706FFFAE77047A072050042
:1043C000447105002DE9F04105460F461646984612
:1043D0000699FFF7E3FF0024444505DA24492846FF
:1043E000FFF7F0FE0134F7E7002409E020492846F2
:1043F000FFF7E8FE0BE01F492846FFF7E3FE013414
:104400000F2C0CDC002C02DD14F0070FEED0B442B0
:10441000F1D23A5D18492846FFF7D4FEEFE7174975
:104420002846FFF7CFFE002409E011492846FFF790
:10443000C9FE0BE012492846FFF7C4FE01340F2CD9
:1044400013DC002C02DD14F0070FEED0B44207D2CB
:104450003A5D0C4B9B5C13F0970FEBD12E22E9E7F2
:1044600003492846FFF7AEFEE8E7BDE8F08100BF4C
:104470003871050050710500487105005471050040
:1044800058710500293F06002DE9F04184B004462B
:104490009DF82C500C9F0E9E95B9012B1ED01948EB
:1044A0004FF0000827B13B46224617492AF0D1FCBD
:1044B000C6B905BB20462BF0F6FC04B0BDE8F08180
:1044C00003950A980290019300920B4600220F99DF
:1044D0002046FFF71FFF80460C48E3E70B484FF0EC
:1044E0000008DFE70F9B0093434632460D992046B4
:1044F0002BF037FDDDE72A460F9920462BF025FDEE
:10450000D8E700BF05FF020023FF0200D5FE02002E
:104510002DE9F04383B00646056842F20F738B42E3
:1045200028BF0B46184A052168462AF014FD0446A8
:104530007368D3F804900B27DFF8508005E04A46F3
:1045400039464046A8473F1A8044002FF7D1736888
:10455000D3F804806F4605E0424621463846A84716
:10456000241A0744002CF7D173685F681B24084E97
:1045700005E03A4621463046A847241A0644002C56
:10458000F7D103B0BDE8F0833CE104007871050089
:104590005C710500074B01221A6004E04008054ADF
:1045A00013685B001360044B9842F7D8034B186004
:1045B000704700BFA445002040420F00A8450020DE
:1045C00070B506460D46002405E0315D0448836859
:1045D0005B6898470134AC42F7D3284670BD00BFF2
:1045E00014C4040030B583B043681C6865680DF1DD
:1045F00007010A482BF03BFD18B99DF80730012B45
:1046000006D001232B7720682BF0F9FC03B030BDD6
:104610000121024800F00AF8F3E700BF14C40400C7
:10462000014B0360002070472072050070B5056AD9
:10463000ADB30C462B791E4A565CB34232D01D4AAC
:10464000525C934231D1AB689847002804DB2E714D
:10465000022C12D0002021E0022C0CD0032C1DD102
:1046600010F1860F07D0D5E8EF3F43F00203C5E80D
:10467000E23F002AF7D12E7110E0D5E8EF3F23F09A
:104680000403C5E8E23F002AF7D1D5E8EF3F23F065
:104690000203C5E8E23F002AF7D1002070BD6FF0A9
:1046A0005700FBE76FF07700F8E76FF08500F5E75C
:1046B000247205002072050008B503482AF03DFC6D
:1046C00002482AF03AFC08BD3C72050074720500ED
:1046D00008B50348034A121A00212BF00FFD08BD4C
:1046E000C00A0020A07D002008B50648064A121A1C
:1046F00006492BF007FD0648064A121A06492BF018
:1047000001FD08BD40000020C00A00205C400600FA
:1047100040000020400000205C4006002DE9F043EE
:1047200083B000AF0446D0F800E0D0F804C085683C
:104730006E468AB06B4613F1100200F063811421BB
:104740008AB10846042903DDDFF8F482C3F8148037
:10475000082801DDC3F818E00C2801DDC3F81CC0EF
:10476000102800DD1D62132940F34F8114253AB152
:104770000521397100217971B971F9717868186171
:1047800000216FF300016FF341016FF382016FF3BA
:10479000C501012363F38811C5F30A0565F35321AD
:1047A0006FF31F510023A748FFF7FEFBB546D4F86F
:1047B0000CE0D4F810C065696E468AB06B4613F100
:1047C000100200F0258114218AB10846042903DD76
:1047D000DFF87482C3F81480082801DDC3F818E0FC
:1047E0000C2801DDC3F81CC0102800DD1D62132950
:1047F00040F3118114253AB10521397100217971F5
:10480000B971F9717868186100216FF300016FF3D5
:1048100041016FF382016FF3C5014FF0010868F3A6
:104820008811C5F30A0565F353216FF31F51854DB8
:1048300000232846FFF7B8FBB546E369834A4146A3
:1048400028462BF014FB256A002D00F0CA80D5F80D
:1048500000E0D5F804C0AE68E8468AB06B4613F1B4
:10486000100200F0DB8014218AB10846042903DD20
:10487000DFF8DC91C3F81490082801DDC3F818E0D4
:104880000C2801DDC3F81CC0102800DD1E621329AE
:1048900040F3C78014263AB105213971002179719E
:1048A000B971F9717868186100216FF300016FF335
:1048B00041016FF382016FF3C501012363F3881196
:1048C000C6F30A0666F353216FF31F5100235D48B8
:1048D000FFF76AFBC546D5F80CE0D5F810C06E6945
:1048E000E8468AB06B4613F1100200F09D80142157
:1048F0008AB10846042903DDDFF85891C3F8149003
:10490000082801DDC3F818E00C2801DDC3F81CC03D
:10491000102800DD1E62132940F3898014263AB165
:104920000521397100217971B971F97178681861BF
:1049300000216FF300016FF341016FF382016FF308
:10494000C501012363F38811C6F30A0666F35321F8
:104950006FF31F5100233B48FFF726FBC546D5F8F0
:1049600018E0D5F81CC02D6A6E468AB06B4613F16C
:1049700010025FD014218AB10846042903DDDFF854
:10498000D880C3F81480082801DDC3F818E00C288B
:1049900001DDC3F81CC0102800DD1D6213294CDDA9
:1049A00014253AB10521397100217971B971F97174
:1049B0007868186100216FF300016FF341016FF314
:1049C00082016FF3C501012363F38811C5F30A0562
:1049D00065F353216FF31F5100231A48FFF7E4FAE0
:1049E000B546A36A174D1D4A012128462BF03FFA10
:1049F000A3691B4A012128462BF039FA0C37BD4622
:104A0000BDE8F0836FF000419AE66FF01B05AEE65B
:104A10006FF00041D8E66FF01B05ECE66FF0004147
:104A200022E76FF01B0636E76FF0004160E76FF09A
:104A30001B0674E76FF000419DE76FF01B05B0E7C0
:104A4000A472050004D00400D472050004730500AC
:104A5000147305004473050074730500A473050006
:104A6000B873050038B504460D4611B10846FFF786
:104A700055FE012C04D02946204626F0F5F938BD14
:104A8000EFF30583103B034A012103482BF0EFF9B4
:104A9000F1E700BFE873050004D0040030BFFFF762
:104AA000FDBF00BF08B5064B5A699B689A4204D007
:104AB000044A536843F08053536027F087F808BDD9
:104AC0000877002000ED00E081690D4B5A6942F43F
:104AD00080725A61BFF34F8FBFF36F8F31F8021CA2
:104AE0005A6922F480725A61BFF34F8FBFF36F8F00
:104AF0004DF60273994201D00020704701207047A3
:104B000000ED00E04FF0000C83F800C002F07F4C95
:104B1000BCF17F4F14D102F00C0CBCF1080F04D093
:104B200012F0080F09D00846704708B5054A012160
:104B300005482BF092F9002008BD01221A70704739
:104B400000207047FC73050004D0040008B5314A0A
:104B5000012131482BF081F9304B9B6A13F0007F23
:104B600026D11D202D4B9B6A13F0807F27D12B4B24
:104B70009B6A13F4801F29D1284B9B6A13F4002FE2
:104B80002BD1264B9B6A13F4802F2DD1234B9B6A8C
:104B900013F4003F2FD1214B9B6A13F4803F31D196
:104BA0001E4A936A6FEA03436FEA1343936208BD98
:104BB0001B4A012118482BF050F91E20D2E7194A50
:104BC000012115482BF049F91F20D0E7164A012191
:104BD00011482BF042F90220CEE7144A01210E4879
:104BE0002BF03BF92120CCE7114A01210A482BF098
:104BF00034F92220CAE70F4A012107482BF02DF98A
:104C00002320C8E70C4A012103482BF026F9242071
:104C1000C6E700BF2874050004D0040000ED00E0E2
:104C20004074050054740500707405009C74050000
:104C3000BC740500E47405000075050008B5002388
:104C40000B70034A012103482BF007F908BD00BF90
:104C50002C75050004D0040090B583B000AF0F2977
:104C600023DC2F4C103900233B7102237B718AB067
:104C7000EC461CF110021AD0122022B1042802DDE9
:104C8000284BCCF8143000233B7002237B70E2B138
:104C90000346082801DDCCF818400C2B01DDCCF8C8
:104CA0001C100CF1200300210DE01F4CDAE76FF01F
:104CB0000040E2E701F1080404EB070E1EF808ECDF
:104CC00003F801EB01310129F4D9112824DD122365
:104CD0004AB10421397100217971B9710121F97149
:104CE0007868CCF8100000216FF300016FF34101E8
:104CF0006FF382016FF3C501012060F38811C3F3E4
:104D00000A0363F353216FF31F5100230748FFF792
:104D10004BF90C37BD4690BD6FF01B03D8E700BFC1
:104D200050750500847505006875050004D0040001
:104D3000F8B505460F461446394A012139482BF08B
:104D40008CF8394B9B6A13F0100F31D11026364B7B
:104D50009B6A13F0080F32D1334B9B6A13F0020F9A
:104D600034D1314B9B6A13F0010F4BD12E4B9B6A10
:104D700013F0200F4DD12C4B9B6A13F0100F01D173
:104D8000294B9B6A284B9B6A13F0200F04D0264ABC
:104D9000536A23F400535362234A936A43F0FF0398
:104DA0009362012128462BF0DCF920703046F8BDD3
:104DB0001E4A01211B482BF050F81126C7E71C4A58
:104DC000012118482BF049F81226C5E7194A01219C
:104DD00014482BF042F8144A536B926A12F0800F79
:104DE00001D11326BDE7144A01210E482BF03FF8EC
:104DF00037B10D4A936A23F0800393621326B0E71C
:104E00001326AEE70D4A012106482BF026F814269A
:104E1000ACE70B4A012103482BF01FF81526AAE73F
:104E20009875050004D0040000ED00E0B0750500A1
:104E3000E4750500F8750500107605002876050074
:104E400048760500F8B505460F461446374A012155
:104E500037482BF002F8374B9B6A13F4805F25D15B
:104E60001626344B9B6A13F4006F26D1314B9B6A94
:104E700013F4007F28D12F4B9B6A13F4806F3FD12E
:104E80002C4B9B6A13F4807F41D12A4B9B6A13F40D
:104E9000005F43D1274A936A43F47F439362012121
:104EA00028462BF05EF920703046F8BD224A0121D9
:104EB0001F482AF0D2FF1726D3E7204A01211C48B9
:104EC0002AF0CBFF1826D1E71D4A012118482AF005
:104ED000C4FF184A936B926A12F4004F01D119264D
:104EE000C9E7184A012112482AF0C1FF37B1114A17
:104EF000936A23F4004393621926BCE71926BAE7A4
:104F0000114A01210A482AF0A8FF1A26B8E70F4AD9
:104F1000012107482AF0A1FF1B26BBE70C4A01210B
:104F200003482AF09AFF1C26B4E700BF78760500F4
:104F300004D0040000ED00E090760500E475050063
:104F4000A4760500C0760500D8760500F476050045
:104F50004876050070B506460D462B4A01212B48C0
:104F60002AF07BFF00232B70294BDC6A14F002042B
:104F70000AD1274BDB6A002B0DDB254BDC6A14F0D2
:104F800080440ED1204670BD224A01211F482AF0DC
:104F900064FF0024F6E7204A01211C482AF05DFF47
:104FA000F0E71E4A012119482AF057FF3046FFF763
:104FB0008BFD98B9164B9B6A13F0FF0F16D1144B5B
:104FC0009C6A14F47F4418D1114B9B6AB3F5803F5F
:104FD000D8D33046FFF7BAFD0446D3E73368104A0A
:104FE00001210A482AF043FF3468CBE72A46012111
:104FF0003046FFF79DFE0446C4E72A4601213046AD
:10500000FFF720FF0446BDE70C77050004D004003D
:1050100000ED00E02477050048770500587705008B
:10502000787705002DE9F0418CB007461646984682
:10503000214B5D68C5F30805002383F31188BFF396
:105040006F8F0DF12E03FFF75DFD04460DF12F026A
:1050500029462BF088F89DF82F3013B10CB0BDE82D
:10506000F0810546EC4620686168A268E368ACE818
:105070000F0020696169A269E369ACE80F00CDF80F
:10508000208009970A969DF82E304BB1079BC3F3F9
:1050900008025AB96FEA53236FEA4323079305E0E6
:1050A000079B23F4FF7323F0010307936946284607
:1050B000FFF7D8FCD2E700BF00ED00E0064B5A69CD
:1050C00042F010025A615A6942F480625A615A6988
:1050D00022F008025A61704700ED00E0EFF308800B
:1050E000EFF3098101B506B42DE9F00F6B46724666
:1050F000FFF798FF0AB001BD002080F31488BFF3CA
:105100006F8F002080F30A8880F30B88104880F3AB
:10511000088800200F49087002F09EFB00200E490D
:105120000860BFF34F8F00F02FF8202080F3118824
:105130000A484FF40061401880F30988EFF31480A7
:105140000221084380F31488BFF36F8F00F0F6F854
:10515000E0B900209E7D002094ED00E0A0A000209A
:10516000084BD3F89000C0F30720002306E0054A5F
:10517000C2F898300021C2F8A01001338342F6DB58
:10518000704700BF00ED00E010B572B6002484F354
:105190001388FFF7E5FF234608E003F120010E4ADC
:1051A0004FF0FF3042F821000133DBB20F2BF4D96E
:1051B000002308E003F16001074A4FF0FF3042F896
:1051C00021000133DBB20F2BF4D962B6BFF34F8F4E
:1051D000BFF36F8F10BD00BF00E100E008B50A4BC0
:1051E0009B68834202D027F06DF908BDEFF3058379
:1051F000002BF8D0054B5A6842F080525A605A6A28
:1052000022F400425A62EEE70877002000ED00E049
:1052100014498A684FF030001044EFF3098C80E89D
:10522000F01F202080F31288BFF36F8F0E4F4FF0D6
:1052300000664A698A603E60D2F8BC000023C2F86A
:10524000BC3080F3118802F1300090E8F01F8CF33D
:10525000098802F1000004B52AF0C0FFBDE804404F
:10526000704700000877002004ED00E01EF0040FF6
:105270000CBFEFF30880EFF30980816911F8021C7D
:105280000229FFD001B5EFF3098106B42DE9F00F33
:10529000694672462AF03AFF0AB001BD002807DBD2
:1052A00000F01F02400901239340024A42F82030D7
:1052B000704700BF00E100E000280CDB00F01F0297
:1052C0004009012393402030034A42F82030BFF3C5
:1052D0004F8FBFF36F8F704700E100E0002808DBBD
:1052E0004901C9B200F1604000F5614080F8001347
:1052F000704700F00F004901C9B2014B19547047C3
:1053000014ED00E04209054B53F8222000F01F0085
:10531000012303FA00F01040704700BF00E100E0F5
:10532000044B23F07F03044A9360BFF34F8FBFF316
:105330006F8F70470000000000ED00E008B5FFF738
:10534000EFFF074AD2F8883023F47003C2F88830A0
:10535000FFF7BEF9FFF7C8F900F048F825F084FF21
:1053600000ED00E010B4A2F120040E4942F8081C40
:1053700021F0010142F8081C42F8203C019B42F850
:105380001C3C029B42F8183C039B42F8143C4FF033
:10539000807342F8043C04650023C0F8BC3010BCA4
:1053A000704700BF73EF020000B50E4615460B4B69
:1053B0009860D0F8AC3083F30B882C4686F30988CC
:1053C0000020044B98472046002100220023024C75
:1053D00020470000ED01030073EF02000877002072
:1053E000014B10221A61704700ED00E0002206E038
:1053F00003F00F030949194420230B760132B2F55B
:10540000877F0ADC13B2002BF2DB03F1604303F564
:105410006143202183F80013F0E77047FCEC00E0C3
:1054200008B5EFF30583103B044A02EBC30149685A
:1054300052F833008847FFF735FB08BD7CC50400F0
:1054400010B584B00A4C23460A4A01210A482AF0C2
:10545000C6FF0023019302930393084B0193E41AC0
:105460000294012101A82AF0BEFF04B010BD00BFC4
:1054700000F002200000002094770500C00A002000
:10548000024B034AC3F8C020704700BF00ED00E0A4
:10549000AAFF4400034BC3F89800C3F89C10C3F85C
:1054A000A020704700ED00E00E4BC3F89800C3F851
:1054B0009800D3F89C000A7A60F304020A72D3F8C9
:1054C000A020C2F34202087A62F347100872D3F8B0
:1054D0009C2022F01F020A60D3F8A03023F01F03A3
:1054E000CB60704700ED00E070B505460E46002425
:1054F00000E00134A6421EDD04EB44039A0005EBF4
:10550000830359680029F4D0A8582AF0C2FE04EB9E
:1055100084030B4A42F8230010F1160F0CD0094BFC
:105520001B78984209DA04EB840302EB830104310F
:10553000FFF7BAFFDDE7002070BD6FF01500FBE755
:10554000DC450020977D002010B504460A4BD3F8B7
:105550009030C3F30723013B984203D82AF073FE2F
:10556000204610BD0346054A012105482AF07FFC6C
:105570006FF01500F5E700BF00ED00E0A47705002F
:10558000FCCF04002DE9F04F87B0814600910193D4
:105590001446002648E03346614A012161482AF05A
:1055A00066FC6FF0150407E03B465F4A01215D4849
:1055B0002AF05DFC6FF01504204607B0BDE8F08FBF
:1055C000D84564D12946C0B22AF074FE2BE0574A70
:1055D000C2F89870D2F89C3003F01F0321F01F012D
:1055E0000B43C2F89C302946E0B22AF063FE044621
:1055F00010F1160FE0D0013415E0013B4B49C1F822
:105600009870D1F8A02002F01F0223F01F0313436B
:10561000C1F8A0302946E0B22AF04CFE044610F151
:10562000160FC9D001340136009B9E42C4DA06EB46
:1056300046054FEA850A09EB85056F68002FF2D011
:10564000019B23B128462AF012FE0028A3D0394638
:1056500059F80A002AF01DFE074610F1160FA3D0D4
:105660008442A1DD314BC3F89800D3F89C2022F08E
:105670001F02C3F89800D3F8A03043F01F0859F870
:105680000A306968194401F1FF3B934298D0934274
:105690009DD0D845B1D0013B2449C1F89870D1F8CC
:1056A000A02002F01F0223F01F031343C1F8A03013
:1056B0002946E0B22AF0FEFD044610F1160F3FF431
:1056C0007BAF0130194BC3F89870D3F89C109DF84C
:1056D000102061F304028DF81020D3F8A030C3F33A
:1056E0004203D2B263F347128DF8102059F80A3002
:1056F0006A681344029323F01F03A8EB0B0843448A
:10570000013B23F01F03059302A9C0B2FFF71CFF62
:10571000044610F1160F3FF44FAF013483E700BF8A
:10572000CC770500FCCF0400F077050000ED00E029
:1057300010B5034C01232278FFF724FF207010BD21
:10574000977D0020044B0522C3F89420BFF34F8FB0
:10575000BFF36F8F704700BF00ED00E0BFF35F8FB6
:10576000024B0022C3F89420704700BF00ED00E018
:1057700038B51C4B1D681C4BD3F89030C3F307237E
:105780009D422BD8FFF7EAFFFFF77AFE002407E0DF
:10579000144B596801EB041120462AF054FD0134E2
:1057A000A542F5D8114805702AF0A3FD10F1160F97
:1057B00013D00E4B1A780C4BD3F89030C3F3072359
:1057C0009A4207DA084BC3F898200021C3F8A010CA
:1057D0000132F0E7FFF7B6FF002038BD4FF0FF3091
:1057E000FBE700BF1478050000ED00E0977D002086
:1057F000014B1860704700BFE40000200246084BD0
:105800001968084BC8180A44C3F1005303F53C3328
:105810009A4202D2024B1A6070474FF0FF30704735
:10582000F0450020E011012068B108B5064A074B99
:105830001B680749A1FB03139B0C00FB03F042F01C
:105840000103984708BD704730D10400340300209D
:1058500083DE1B43124BD3F82436C3F3080282F4D1
:105860008072C3F3094388324FF47A6101FB03F37A
:105870000C4901FB02335B000B4AA2FB0312D20B63
:105880004FF4FA2101FB1231B1F57A3F00D3013216
:10589000064BC3F804290122C3F80026704700BF55
:1058A00000C0FF0010270080D34D6210000012508E
:1058B00008B5044B044A1A6000F088F8FFF7CAFFE5
:1058C000002008BD340300200020A107BFF34F8F44
:1058D0000549CA6802F4E062044B1343CB60BFF38E
:1058E0004F8F00BFFDE700BF00ED00E00400FA05A8
:1058F00010B502F023F9204C206002F01BF9606023
:1059000002F020F9A060FF21002002F01FF96FF0E3
:105910007F41012002F01AF94FF6FF71022002F0D8
:1059200015F90F21032002F011F9FF21042002F0E4
:105930000DF94FF6FF71052002F008F9FF2106204E
:1059400002F004F90F21072002F000F903210020E2
:1059500002F004F93F21012002F000F93F2102206A
:1059600002F0FCF80321084602F0F8F8204601F0A6
:10597000FBFF002010BD00BFF4450020F0B583B050
:1059800005460C4616468AB20F4883681B682946AE
:1059900098470346C00F01D103B0F0BD56B1184679
:1059A000FAE72CF0B9FA01903A4601A9A81946F095
:1059B000C7FA3E44A64204D2A71B042FF1D90427FC
:1059C000EFE70020E8E700BFF0C30400024B01222C
:1059D000C3F80424704700BF002008E0094BD3F847
:1059E0000C3403F48033014618B1B3FA83F2520940
:1059F00002701BB10B781BB100207047002070476C
:105A00000120704700E010500048704754460020C5
:105A1000034BC01A8010034B03FB00F0704700BF1C
:105A200014460020B76DDBB638B505460C46FFF7C7
:105A3000EFFF0146402203482AF06AFD014628464E
:105A4000A04738BD60C3040030B583B005460C469E
:105A5000FFF7DEFF0146402300932346054A064830
:105A60002AF070FD011E01DB03B030BD2846A047BF
:105A7000FAE700BF8D05030060C3040008B50228E3
:105A800006D0042803D1002104482AF02FFD08BDC8
:105A9000012102482AF02AFDF9E700BF60C3040093
:105AA00010B582B0EFF31184202383F31288BFF383
:105AB0006F8F134A136843F00201116013F0010F56
:105AC00009D1002384F31188BFF36F8F93B92AF0B3
:105AD00065FD02B010BD0DF10700FFF77FFF9DF8D7
:105AE00007300BB10023EDE7FFF78EFF2AF0ECFC47
:105AF0000123E7E7002103482AF0F8FCE9E700BFAB
:105B00006446002060C3040010B5EFF31184202325
:105B100083F31288BFF36F8F074A136823F00201E3
:105B2000116013F0010F04D084F31188BFF36F8F5D
:105B300010BD2AF038FDF7E76446002070B5054631
:105B4000012806D12C4BD3F8503403F00303012B6A
:105B50004BD045F060FC044618B9284B1B78002B4D
:105B600038D1EFF31186202383F31288BFF36F8FB0
:105B700001241CB9204B0422C3F808231E4BD3F880
:105B80004C24D3F84C3403F0030312F4803F03D0C9
:105B9000012B25D0012D23D0F4B130462AF03AFB59
:105BA000154BD3F8403413F0FF0FE7D1124BD3F865
:105BB0000831002BE2D0104B0022C3F80821D3F8A3
:105BC00008210122C3F840240D492020C1F8A0017A
:105BD0001A61D3E70026CCE701202AF0E9FCDFE7D1
:105BE00024B186F31188BFF36F8F70BD024B04227E
:105BF000C3F80423F9E700BF00E010509E7D0020A9
:105C000000E100E000B587B0CDF800D0CDF804D0B9
:105C1000002302930123039304AB049305936B4683
:105C2000064A2AF0ABFC002805DB43F609520023A4
:105C3000684625F083FD07B05DF804FB0D06030000
:105C4000F8B506460022012140F205102AF0BAFA02
:105C5000114801F09BFFD8B9074601F0B5FF0024B9
:105C600003E00123AB601C44E4B2012C0ED82146B2
:105C700030462AF0D9FB0546214630462AF0E1FBA2
:105C8000064929F026FF031EEBDA1F463846F8BD09
:105C90006FF00407FAE700BF7D5A00005C7805004A
:105CA00008B5C1B201482AF0CCFB08BD60C30400AE
:105CB00010B504460E4B0121D3E8EF2FC3E8E01FD7
:105CC0000028F9D11AB1631E012B0DD910BD094866
:105CD0002AF0B7FB084900234B608B60CB6001239F
:105CE0008B6029F013FFEEE72046FFF727FFEDE773
:105CF0001046002060C304000046002010B5044692
:105D00000A2806D0E1B2064883685B6898472046B7
:105D100010BD034883685B680D219847F2E700BF18
:105D200014C4040010B5044C2046FFF761FD204662
:105D3000FDF7ACF910BD00BFFD5C000008B50548DB
:105D400045F036FA18B1FFF7EDFF002008BD6FF0FF
:105D50001200FBE714C404002DE9F04F83B00546A0
:105D60001F46DDF83090DDF834A0436893F84030EA
:105D700053FA81F101F00F038DF80430C1F30311E0
:105D800041F010018DF80510C2F3C70868F04F0309
:105D90008DF806304E460024FB88B4EBD30F28D292
:105DA00008EB040161F04F018DF806106B68D3F821
:105DB00034B00123032201A92846D847E8B96B680B
:105DC000D3F834B00023BA8831462846D847B8B94A
:105DD000BB881E4409EB0A039E4202D80134E4B298
:105DE000DAE7094A012109482AF037F84FF0FF3075
:105DF00000E0002003B0BDE8F08F4FF0FF30F9E77E
:105E00004FF0FF30F6E700BFB07805002CD004005B
:105E100030B583B00446406890F8400020258DF8E6
:105E2000005000258DF8015021258DF80250C9B28F
:105E30000D188DF803509D88294450FA81F10139DD
:105E40008DF8041022218DF80510D1088DF8061068
:105E5000DB881A44D210013A8DF8072063685D6B25
:105E60000123082269462046A84740B963685D6B54
:105E70000023079A06992046A84703B030BD044A7C
:105E80000121044829F0E9FF4FF0FF30F5E700BF9A
:105E9000C87805002CD00400F0B583B0089E476890
:105EA0001D89B3F804E075451DD3B3F806C00EFB99
:105EB0000CFCBCF1000F1EDB4FEAEC04D3F800C071
:105EC000644528BF6446CEB1C4B175451ED812F0F2
:105ED000070F23D197F84A5045BB01940096FFF76E
